{
  "contracts/NftMarketplace.sol": {
    "NftMarketplace": {
      "abi": [
        {
          "inputs": [
            {
              "internalType": "address",
              "name": "nftAddress",
              "type": "address"
            },
            {
              "internalType": "uint256",
              "name": "tokenId",
              "type": "uint256"
            }
          ],
          "name": "NftMarkerplace__AlreadyListed",
          "type": "error"
        },
        {
          "inputs": [],
          "name": "NftMarketplace__NotApprovedForMarketplace",
          "type": "error"
        },
        {
          "inputs": [],
          "name": "NftMarketplace__PriceMustBePositive",
          "type": "error"
        },
        {
          "anonymous": false,
          "inputs": [
            {
              "indexed": true,
              "internalType": "address",
              "name": "seller",
              "type": "address"
            },
            {
              "indexed": true,
              "internalType": "address",
              "name": "nftAddress",
              "type": "address"
            },
            {
              "indexed": false,
              "internalType": "uint256",
              "name": "tokenId",
              "type": "uint256"
            },
            {
              "indexed": false,
              "internalType": "uint256",
              "name": "price",
              "type": "uint256"
            }
          ],
          "name": "ItemListed",
          "type": "event"
        },
        {
          "inputs": [
            {
              "internalType": "address",
              "name": "nftAddress",
              "type": "address"
            },
            {
              "internalType": "uint256",
              "name": "tokenId",
              "type": "uint256"
            },
            {
              "internalType": "uint256",
              "name": "price",
              "type": "uint256"
            }
          ],
          "name": "listItem",
          "outputs": [],
          "stateMutability": "nonpayable",
          "type": "function"
        }
      ],
      "devdoc": {
        "kind": "dev",
        "methods": {},
        "version": 1
      },
      "evm": {
        "bytecode": {
          "linkReferences": {},
          "object": "608060405234801561001057600080fd5b506105a4806100206000396000f3fe608060405234801561001057600080fd5b506004361061002b5760003560e01c806389bfd38f14610030575b600080fd5b61004a6004803603810190610045919061044e565b61004c565b005b82823360008060008573ffffffffffffffffffffffffffffffffffffffff1673ffffffffffffffffffffffffffffffffffffffff1681526020019081526020016000206000848152602001908152602001600020604051806040016040529081600082015481526020016001820160009054906101000a900473ffffffffffffffffffffffffffffffffffffffff1673ffffffffffffffffffffffffffffffffffffffff1673ffffffffffffffffffffffffffffffffffffffff168152505090506000816000015111156101595783836040517f81d4ce8b0000000000000000000000000000000000000000000000000000000081526004016101509291906104bf565b60405180910390fd5b60008511610193576040517f40dc723b00000000000000000000000000000000000000000000000000000000815260040160405180910390fd5b60008790503073ffffffffffffffffffffffffffffffffffffffff168173ffffffffffffffffffffffffffffffffffffffff1663081812fc896040518263ffffffff1660e01b81526004016101e891906104e8565b602060405180830381865afa158015610205573d6000803e3d6000fd5b505050506040513d601f19601f820116820180604052508101906102299190610518565b73ffffffffffffffffffffffffffffffffffffffff1614610276576040517f13e7d28d00000000000000000000000000000000000000000000000000000000815260040160405180910390fd5b60405180604001604052808781526020013373ffffffffffffffffffffffffffffffffffffffff168152506000808a73ffffffffffffffffffffffffffffffffffffffff1673ffffffffffffffffffffffffffffffffffffffff16815260200190815260200160002060008981526020019081526020016000206000820151816000015560208201518160010160006101000a81548173ffffffffffffffffffffffffffffffffffffffff021916908373ffffffffffffffffffffffffffffffffffffffff1602179055509050508773ffffffffffffffffffffffffffffffffffffffff163373ffffffffffffffffffffffffffffffffffffffff167fd547e933094f12a9159076970143ebe73234e64480317844b0dcb36117116de489896040516103a3929190610545565b60405180910390a35050505050505050565b600080fd5b600073ffffffffffffffffffffffffffffffffffffffff82169050919050565b60006103e5826103ba565b9050919050565b6103f5816103da565b811461040057600080fd5b50565b600081359050610412816103ec565b92915050565b6000819050919050565b61042b81610418565b811461043657600080fd5b50565b60008135905061044881610422565b92915050565b600080600060608486031215610467576104666103b5565b5b600061047586828701610403565b935050602061048686828701610439565b925050604061049786828701610439565b9150509250925092565b6104aa816103da565b82525050565b6104b981610418565b82525050565b60006040820190506104d460008301856104a1565b6104e160208301846104b0565b9392505050565b60006020820190506104fd60008301846104b0565b92915050565b600081519050610512816103ec565b92915050565b60006020828403121561052e5761052d6103b5565b5b600061053c84828501610503565b91505092915050565b600060408201905061055a60008301856104b0565b61056760208301846104b0565b939250505056fea264697066735822122011a8542970d69ff95824f74c1758e611279ef5b68acbddc6e19626d3d844e6bb64736f6c634300080c0033",
          "opcodes": "PUSH1 0x80 PUSH1 0x40 MSTORE CALLVALUE DUP1 ISZERO PUSH2 0x10 JUMPI PUSH1 0x0 DUP1 REVERT JUMPDEST POP PUSH2 0x5A4 DUP1 PUSH2 0x20 PUSH1 0x0 CODECOPY PUSH1 0x0 RETURN INVALID PUSH1 0x80 PUSH1 0x40 MSTORE CALLVALUE DUP1 ISZERO PUSH2 0x10 JUMPI PUSH1 0x0 DUP1 REVERT JUMPDEST POP PUSH1 0x4 CALLDATASIZE LT PUSH2 0x2B JUMPI PUSH1 0x0 CALLDATALOAD PUSH1 0xE0 SHR DUP1 PUSH4 0x89BFD38F EQ PUSH2 0x30 JUMPI JUMPDEST PUSH1 0x0 DUP1 REVERT JUMPDEST PUSH2 0x4A PUSH1 0x4 DUP1 CALLDATASIZE SUB DUP2 ADD SWAP1 PUSH2 0x45 SWAP2 SWAP1 PUSH2 0x44E JUMP JUMPDEST PUSH2 0x4C JUMP JUMPDEST STOP JUMPDEST DUP3 DUP3 CALLER PUSH1 0x0 DUP1 PUSH1 0x0 DUP6 PUSH20 0xFFFFFFFFFFFFFFFFFFFFFFFFFFFFFFFFFFFFFFFF AND PUSH20 0xFFFFFFFFFFFFFFFFFFFFFFFFFFFFFFFFFFFFFFFF AND DUP2 MSTORE PUSH1 0x20 ADD SWAP1 DUP2 MSTORE PUSH1 0x20 ADD PUSH1 0x0 KECCAK256 PUSH1 0x0 DUP5 DUP2 MSTORE PUSH1 0x20 ADD SWAP1 DUP2 MSTORE PUSH1 0x20 ADD PUSH1 0x0 KECCAK256 PUSH1 0x40 MLOAD DUP1 PUSH1 0x40 ADD PUSH1 0x40 MSTORE SWAP1 DUP2 PUSH1 0x0 DUP3 ADD SLOAD DUP2 MSTORE PUSH1 0x20 ADD PUSH1 0x1 DUP3 ADD PUSH1 0x0 SWAP1 SLOAD SWAP1 PUSH2 0x100 EXP SWAP1 DIV PUSH20 0xFFFFFFFFFFFFFFFFFFFFFFFFFFFFFFFFFFFFFFFF AND PUSH20 0xFFFFFFFFFFFFFFFFFFFFFFFFFFFFFFFFFFFFFFFF AND PUSH20 0xFFFFFFFFFFFFFFFFFFFFFFFFFFFFFFFFFFFFFFFF AND DUP2 MSTORE POP POP SWAP1 POP PUSH1 0x0 DUP2 PUSH1 0x0 ADD MLOAD GT ISZERO PUSH2 0x159 JUMPI DUP4 DUP4 PUSH1 0x40 MLOAD PUSH32 0x81D4CE8B00000000000000000000000000000000000000000000000000000000 DUP2 MSTORE PUSH1 0x4 ADD PUSH2 0x150 SWAP3 SWAP2 SWAP1 PUSH2 0x4BF JUMP JUMPDEST PUSH1 0x40 MLOAD DUP1 SWAP2 SUB SWAP1 REVERT JUMPDEST PUSH1 0x0 DUP6 GT PUSH2 0x193 JUMPI PUSH1 0x40 MLOAD PUSH32 0x40DC723B00000000000000000000000000000000000000000000000000000000 DUP2 MSTORE PUSH1 0x4 ADD PUSH1 0x40 MLOAD DUP1 SWAP2 SUB SWAP1 REVERT JUMPDEST PUSH1 0x0 DUP8 SWAP1 POP ADDRESS PUSH20 0xFFFFFFFFFFFFFFFFFFFFFFFFFFFFFFFFFFFFFFFF AND DUP2 PUSH20 0xFFFFFFFFFFFFFFFFFFFFFFFFFFFFFFFFFFFFFFFF AND PUSH4 0x81812FC DUP10 PUSH1 0x40 MLOAD DUP3 PUSH4 0xFFFFFFFF AND PUSH1 0xE0 SHL DUP2 MSTORE PUSH1 0x4 ADD PUSH2 0x1E8 SWAP2 SWAP1 PUSH2 0x4E8 JUMP JUMPDEST PUSH1 0x20 PUSH1 0x40 MLOAD DUP1 DUP4 SUB DUP2 DUP7 GAS STATICCALL ISZERO DUP1 ISZERO PUSH2 0x205 JUMPI RETURNDATASIZE PUSH1 0x0 DUP1 RETURNDATACOPY RETURNDATASIZE PUSH1 0x0 REVERT JUMPDEST POP POP POP POP PUSH1 0x40 MLOAD RETURNDATASIZE PUSH1 0x1F NOT PUSH1 0x1F DUP3 ADD AND DUP3 ADD DUP1 PUSH1 0x40 MSTORE POP DUP2 ADD SWAP1 PUSH2 0x229 SWAP2 SWAP1 PUSH2 0x518 JUMP JUMPDEST PUSH20 0xFFFFFFFFFFFFFFFFFFFFFFFFFFFFFFFFFFFFFFFF AND EQ PUSH2 0x276 JUMPI PUSH1 0x40 MLOAD PUSH32 0x13E7D28D00000000000000000000000000000000000000000000000000000000 DUP2 MSTORE PUSH1 0x4 ADD PUSH1 0x40 MLOAD DUP1 SWAP2 SUB SWAP1 REVERT JUMPDEST PUSH1 0x40 MLOAD DUP1 PUSH1 0x40 ADD PUSH1 0x40 MSTORE DUP1 DUP8 DUP2 MSTORE PUSH1 0x20 ADD CALLER PUSH20 0xFFFFFFFFFFFFFFFFFFFFFFFFFFFFFFFFFFFFFFFF AND DUP2 MSTORE POP PUSH1 0x0 DUP1 DUP11 PUSH20 0xFFFFFFFFFFFFFFFFFFFFFFFFFFFFFFFFFFFFFFFF AND PUSH20 0xFFFFFFFFFFFFFFFFFFFFFFFFFFFFFFFFFFFFFFFF AND DUP2 MSTORE PUSH1 0x20 ADD SWAP1 DUP2 MSTORE PUSH1 0x20 ADD PUSH1 0x0 KECCAK256 PUSH1 0x0 DUP10 DUP2 MSTORE PUSH1 0x20 ADD SWAP1 DUP2 MSTORE PUSH1 0x20 ADD PUSH1 0x0 KECCAK256 PUSH1 0x0 DUP3 ADD MLOAD DUP2 PUSH1 0x0 ADD SSTORE PUSH1 0x20 DUP3 ADD MLOAD DUP2 PUSH1 0x1 ADD PUSH1 0x0 PUSH2 0x100 EXP DUP2 SLOAD DUP2 PUSH20 0xFFFFFFFFFFFFFFFFFFFFFFFFFFFFFFFFFFFFFFFF MUL NOT AND SWAP1 DUP4 PUSH20 0xFFFFFFFFFFFFFFFFFFFFFFFFFFFFFFFFFFFFFFFF AND MUL OR SWAP1 SSTORE POP SWAP1 POP POP DUP8 PUSH20 0xFFFFFFFFFFFFFFFFFFFFFFFFFFFFFFFFFFFFFFFF AND CALLER PUSH20 0xFFFFFFFFFFFFFFFFFFFFFFFFFFFFFFFFFFFFFFFF AND PUSH32 0xD547E933094F12A9159076970143EBE73234E64480317844B0DCB36117116DE4 DUP10 DUP10 PUSH1 0x40 MLOAD PUSH2 0x3A3 SWAP3 SWAP2 SWAP1 PUSH2 0x545 JUMP JUMPDEST PUSH1 0x40 MLOAD DUP1 SWAP2 SUB SWAP1 LOG3 POP POP POP POP POP POP POP POP JUMP JUMPDEST PUSH1 0x0 DUP1 REVERT JUMPDEST PUSH1 0x0 PUSH20 0xFFFFFFFFFFFFFFFFFFFFFFFFFFFFFFFFFFFFFFFF DUP3 AND SWAP1 POP SWAP2 SWAP1 POP JUMP JUMPDEST PUSH1 0x0 PUSH2 0x3E5 DUP3 PUSH2 0x3BA JUMP JUMPDEST SWAP1 POP SWAP2 SWAP1 POP JUMP JUMPDEST PUSH2 0x3F5 DUP2 PUSH2 0x3DA JUMP JUMPDEST DUP2 EQ PUSH2 0x400 JUMPI PUSH1 0x0 DUP1 REVERT JUMPDEST POP JUMP JUMPDEST PUSH1 0x0 DUP2 CALLDATALOAD SWAP1 POP PUSH2 0x412 DUP2 PUSH2 0x3EC JUMP JUMPDEST SWAP3 SWAP2 POP POP JUMP JUMPDEST PUSH1 0x0 DUP2 SWAP1 POP SWAP2 SWAP1 POP JUMP JUMPDEST PUSH2 0x42B DUP2 PUSH2 0x418 JUMP JUMPDEST DUP2 EQ PUSH2 0x436 JUMPI PUSH1 0x0 DUP1 REVERT JUMPDEST POP JUMP JUMPDEST PUSH1 0x0 DUP2 CALLDATALOAD SWAP1 POP PUSH2 0x448 DUP2 PUSH2 0x422 JUMP JUMPDEST SWAP3 SWAP2 POP POP JUMP JUMPDEST PUSH1 0x0 DUP1 PUSH1 0x0 PUSH1 0x60 DUP5 DUP7 SUB SLT ISZERO PUSH2 0x467 JUMPI PUSH2 0x466 PUSH2 0x3B5 JUMP JUMPDEST JUMPDEST PUSH1 0x0 PUSH2 0x475 DUP7 DUP3 DUP8 ADD PUSH2 0x403 JUMP JUMPDEST SWAP4 POP POP PUSH1 0x20 PUSH2 0x486 DUP7 DUP3 DUP8 ADD PUSH2 0x439 JUMP JUMPDEST SWAP3 POP POP PUSH1 0x40 PUSH2 0x497 DUP7 DUP3 DUP8 ADD PUSH2 0x439 JUMP JUMPDEST SWAP2 POP POP SWAP3 POP SWAP3 POP SWAP3 JUMP JUMPDEST PUSH2 0x4AA DUP2 PUSH2 0x3DA JUMP JUMPDEST DUP3 MSTORE POP POP JUMP JUMPDEST PUSH2 0x4B9 DUP2 PUSH2 0x418 JUMP JUMPDEST DUP3 MSTORE POP POP JUMP JUMPDEST PUSH1 0x0 PUSH1 0x40 DUP3 ADD SWAP1 POP PUSH2 0x4D4 PUSH1 0x0 DUP4 ADD DUP6 PUSH2 0x4A1 JUMP JUMPDEST PUSH2 0x4E1 PUSH1 0x20 DUP4 ADD DUP5 PUSH2 0x4B0 JUMP JUMPDEST SWAP4 SWAP3 POP POP POP JUMP JUMPDEST PUSH1 0x0 PUSH1 0x20 DUP3 ADD SWAP1 POP PUSH2 0x4FD PUSH1 0x0 DUP4 ADD DUP5 PUSH2 0x4B0 JUMP JUMPDEST SWAP3 SWAP2 POP POP JUMP JUMPDEST PUSH1 0x0 DUP2 MLOAD SWAP1 POP PUSH2 0x512 DUP2 PUSH2 0x3EC JUMP JUMPDEST SWAP3 SWAP2 POP POP JUMP JUMPDEST PUSH1 0x0 PUSH1 0x20 DUP3 DUP5 SUB SLT ISZERO PUSH2 0x52E JUMPI PUSH2 0x52D PUSH2 0x3B5 JUMP JUMPDEST JUMPDEST PUSH1 0x0 PUSH2 0x53C DUP5 DUP3 DUP6 ADD PUSH2 0x503 JUMP JUMPDEST SWAP2 POP POP SWAP3 SWAP2 POP POP JUMP JUMPDEST PUSH1 0x0 PUSH1 0x40 DUP3 ADD SWAP1 POP PUSH2 0x55A PUSH1 0x0 DUP4 ADD DUP6 PUSH2 0x4B0 JUMP JUMPDEST PUSH2 0x567 PUSH1 0x20 DUP4 ADD DUP5 PUSH2 0x4B0 JUMP JUMPDEST SWAP4 SWAP3 POP POP POP JUMP INVALID LOG2 PUSH5 0x6970667358 0x22 SLT KECCAK256 GT 0xA8 SLOAD 0x29 PUSH17 0xD69FF95824F74C1758E611279EF5B68ACB 0xDD 0xC6 0xE1 SWAP7 0x26 0xD3 0xD8 DIFFICULTY 0xE6 0xBB PUSH5 0x736F6C6343 STOP ADDMOD 0xC STOP CALLER "
        },
        "gasEstimates": {
          "creation": {
            "codeDepositCost": "288800",
            "executionCost": "331",
            "totalCost": "289131"
          },
          "external": {
            "listItem(address,uint256,uint256)": "infinite"
          }
        },
        "methodIdentifiers": {
          "listItem(address,uint256,uint256)": "89bfd38f"
        }
      },
      "storageLayout": {
        "storage": [
          {
            "astId": 162,
            "contract": "contracts/NftMarketplace.sol:NftMarketplace",
            "label": "s_listings",
            "offset": 0,
            "slot": "0",
            "type": "t_mapping(t_address,t_mapping(t_uint256,t_struct(Listing)145_storage))"
          }
        ],
        "types": {
          "t_address": {
            "encoding": "inplace",
            "label": "address",
            "numberOfBytes": "20"
          },
          "t_mapping(t_address,t_mapping(t_uint256,t_struct(Listing)145_storage))": {
            "encoding": "mapping",
            "key": "t_address",
            "label": "mapping(address => mapping(uint256 => struct NftMarketplace.Listing))",
            "numberOfBytes": "32",
            "value": "t_mapping(t_uint256,t_struct(Listing)145_storage)"
          },
          "t_mapping(t_uint256,t_struct(Listing)145_storage)": {
            "encoding": "mapping",
            "key": "t_uint256",
            "label": "mapping(uint256 => struct NftMarketplace.Listing)",
            "numberOfBytes": "32",
            "value": "t_struct(Listing)145_storage"
          },
          "t_struct(Listing)145_storage": {
            "encoding": "inplace",
            "label": "struct NftMarketplace.Listing",
            "members": [
              {
                "astId": 142,
                "contract": "contracts/NftMarketplace.sol:NftMarketplace",
                "label": "price",
                "offset": 0,
                "slot": "0",
                "type": "t_uint256"
              },
              {
                "astId": 144,
                "contract": "contracts/NftMarketplace.sol:NftMarketplace",
                "label": "seller",
                "offset": 0,
                "slot": "1",
                "type": "t_address"
              }
            ],
            "numberOfBytes": "64"
          },
          "t_uint256": {
            "encoding": "inplace",
            "label": "uint256",
            "numberOfBytes": "32"
          }
        }
      },
      "userdoc": {
        "kind": "user",
        "methods": {},
        "version": 1
      }
    }
  }
}